{
  "contractName": "MyTalk",
  "abi": [
    {
      "constant": true,
      "inputs": [],
      "name": "readPrice",
      "outputs": [
        {
          "name": "",
          "type": "uint256"
        }
      ],
      "payable": false,
      "stateMutability": "view",
      "type": "function",
      "signature": "0x7e91400f"
    },
    {
      "constant": true,
      "inputs": [],
      "name": "publishPrice",
      "outputs": [
        {
          "name": "",
          "type": "uint256"
        }
      ],
      "payable": false,
      "stateMutability": "view",
      "type": "function",
      "signature": "0x971c4845"
    },
    {
      "inputs": [],
      "payable": false,
      "stateMutability": "nonpayable",
      "type": "constructor",
      "signature": "constructor"
    },
    {
      "anonymous": false,
      "inputs": [
        {
          "indexed": false,
          "name": "sender",
          "type": "address"
        },
        {
          "indexed": false,
          "name": "title",
          "type": "string"
        }
      ],
      "name": "PublishArticle",
      "type": "event",
      "signature": "0x9e4773d4492486b1228a454c71607f60409cd35b5185ab4099c7d54252b86601"
    },
    {
      "anonymous": false,
      "inputs": [
        {
          "indexed": false,
          "name": "sender",
          "type": "address"
        }
      ],
      "name": "ReadArticle",
      "type": "event",
      "signature": "0x51ca562e1222bf865f4293fac3a9c53034d58809b521710bcb8941b63a67481e"
    },
    {
      "constant": false,
      "inputs": [
        {
          "name": "_title",
          "type": "string"
        }
      ],
      "name": "Publish",
      "outputs": [],
      "payable": true,
      "stateMutability": "payable",
      "type": "function",
      "signature": "0x72d2186f"
    },
    {
      "constant": false,
      "inputs": [
        {
          "name": "_title",
          "type": "string"
        }
      ],
      "name": "Read",
      "outputs": [],
      "payable": true,
      "stateMutability": "payable",
      "type": "function",
      "signature": "0x3e0142d0"
    },
    {
      "constant": true,
      "inputs": [],
      "name": "contractBalance",
      "outputs": [
        {
          "name": "",
          "type": "uint256"
        }
      ],
      "payable": false,
      "stateMutability": "view",
      "type": "function",
      "signature": "0x8b7afe2e"
    },
    {
      "constant": false,
      "inputs": [],
      "name": "withdraw",
      "outputs": [],
      "payable": true,
      "stateMutability": "payable",
      "type": "function",
      "signature": "0x3ccfd60b"
    },
    {
      "constant": true,
      "inputs": [
        {
          "name": "user",
          "type": "address"
        }
      ],
      "name": "balanceOf",
      "outputs": [
        {
          "name": "",
          "type": "uint256"
        }
      ],
      "payable": false,
      "stateMutability": "view",
      "type": "function",
      "signature": "0x70a08231"
    },
    {
      "constant": false,
      "inputs": [
        {
          "name": "_publishPrice",
          "type": "uint256"
        }
      ],
      "name": "setPublishPrice",
      "outputs": [],
      "payable": false,
      "stateMutability": "nonpayable",
      "type": "function",
      "signature": "0x600d09f5"
    },
    {
      "constant": false,
      "inputs": [
        {
          "name": "_readPrice",
          "type": "uint256"
        }
      ],
      "name": "setReadPrice",
      "outputs": [],
      "payable": false,
      "stateMutability": "nonpayable",
      "type": "function",
      "signature": "0x64acc375"
    }
  ],
  "bytecode": "0x608060405266038d7ea4c6800060005566038d7ea4c6800060015534801561002657600080fd5b5033600260006101000a81548173ffffffffffffffffffffffffffffffffffffffff021916908373ffffffffffffffffffffffffffffffffffffffff160217905550610997806100776000396000f3fe608060405260043610610099576000357c0100000000000000000000000000000000000000000000000000000000900463ffffffff1680633ccfd60b1461009e5780633e0142d0146100a8578063600d09f51461016357806364acc3751461019e57806370a08231146101d957806372d2186f1461023e5780637e91400f146102f95780638b7afe2e14610324578063971c48451461034f575b600080fd5b6100a661037a565b005b610161600480360360208110156100be57600080fd5b81019080803590602001906401000000008111156100db57600080fd5b8201836020820111156100ed57600080fd5b8035906020019184600183028401116401000000008311171561010f57600080fd5b91908080601f016020809104026020016040519081016040528093929190818152602001838380828437600081840152601f19601f82011690508083019250505050505050919291929050505061044d565b005b34801561016f57600080fd5b5061019c6004803603602081101561018657600080fd5b81019080803590602001909291905050506105a4565b005b3480156101aa57600080fd5b506101d7600480360360208110156101c157600080fd5b810190808035906020019092919050505061060a565b005b3480156101e557600080fd5b50610228600480360360208110156101fc57600080fd5b81019080803573ffffffffffffffffffffffffffffffffffffffff169060200190929190505050610670565b6040518082815260200191505060405180910390f35b6102f76004803603602081101561025457600080fd5b810190808035906020019064010000000081111561027157600080fd5b82018360208201111561028357600080fd5b803590602001918460018302840111640100000000831117156102a557600080fd5b91908080601f016020809104026020016040519081016040528093929190818152602001838380828437600081840152601f19601f8201169050808301925050505050505091929192905050506106b9565b005b34801561030557600080fd5b5061030e61089b565b6040518082815260200191505060405180910390f35b34801561033057600080fd5b506103396108a1565b6040518082815260200191505060405180910390f35b34801561035b57600080fd5b506103646108c0565b6040518082815260200191505060405180910390f35b6000600360003373ffffffffffffffffffffffffffffffffffffffff1673ffffffffffffffffffffffffffffffffffffffff1681526020019081526020016000205490506000600360003373ffffffffffffffffffffffffffffffffffffffff1673ffffffffffffffffffffffffffffffffffffffff168152602001908152602001600020819055503373ffffffffffffffffffffffffffffffffffffffff166108fc829081150290604051600060405180830381858888f19350505050158015610449573d6000803e3d6000fd5b5050565b600054341015151561045e57600080fd5b60006005826040518082805190602001908083835b6020831015156104985780518252602082019150602081019050602083039250610473565b6001836020036101000a038019825116818451168082178552505050505050905001915050908152602001604051809103902060009054906101000a900473ffffffffffffffffffffffffffffffffffffffff169050600054600360008373ffffffffffffffffffffffffffffffffffffffff1673ffffffffffffffffffffffffffffffffffffffff168152602001908152602001600020600082825401925050819055507f51ca562e1222bf865f4293fac3a9c53034d58809b521710bcb8941b63a67481e33604051808273ffffffffffffffffffffffffffffffffffffffff1673ffffffffffffffffffffffffffffffffffffffff16815260200191505060405180910390a15050565b3373ffffffffffffffffffffffffffffffffffffffff16600260009054906101000a900473ffffffffffffffffffffffffffffffffffffffff1673ffffffffffffffffffffffffffffffffffffffff1614151561060057600080fd5b8060018190555050565b3373ffffffffffffffffffffffffffffffffffffffff16600260009054906101000a900473ffffffffffffffffffffffffffffffffffffffff1673ffffffffffffffffffffffffffffffffffffffff1614151561066657600080fd5b8060008190555050565b6000600360008373ffffffffffffffffffffffffffffffffffffffff1673ffffffffffffffffffffffffffffffffffffffff168152602001908152602001600020549050919050565b60015434101515156106ca57600080fd5b336005826040518082805190602001908083835b60208310151561070357805182526020820191506020810190506020830392506106de565b6001836020036101000a038019825116818451168082178552505050505050905001915050908152602001604051809103902060006101000a81548173ffffffffffffffffffffffffffffffffffffffff021916908373ffffffffffffffffffffffffffffffffffffffff16021790555080600460003373ffffffffffffffffffffffffffffffffffffffff1673ffffffffffffffffffffffffffffffffffffffff16815260200190815260200160002090805190602001906107c79291906108c6565b507f9e4773d4492486b1228a454c71607f60409cd35b5185ab4099c7d54252b866013382604051808373ffffffffffffffffffffffffffffffffffffffff1673ffffffffffffffffffffffffffffffffffffffff16815260200180602001828103825283818151815260200191508051906020019080838360005b8381101561085d578082015181840152602081019050610842565b50505050905090810190601f16801561088a5780820380516001836020036101000a031916815260200191505b50935050505060405180910390a150565b60005481565b60003073ffffffffffffffffffffffffffffffffffffffff1631905090565b60015481565b828054600181600116156101000203166002900490600052602060002090601f016020900481019282601f1061090757805160ff1916838001178555610935565b82800160010185558215610935579182015b82811115610934578251825591602001919060010190610919565b5b5090506109429190610946565b5090565b61096891905b8082111561096457600081600090555060010161094c565b5090565b9056fea165627a7a7230582003c14fdc83c9ea61326c9685d287af675096feee0701157b4607405c2c97bd3c0029",
  "source": "pragma solidity ^0.5.0;\r\n\r\ncontract MyTalk {\r\n\r\n    // 每次点赞的奖励\r\n    uint256 public readPrice = 0.001 ether;\r\n\r\n    // 每次发布句子的价格\r\n    uint256 public publishPrice = 0.001 ether;\r\n\r\n    // 合约拥有者的地址\r\n    address owner;\r\n\r\n    // 发布句子事件\r\n    event PublishArticle(address sender, string title);\r\n\r\n    // 点赞句子事件\r\n    event ReadArticle(address sender);\r\n\r\n    // 存放每个作者的奖励，用于提现\r\n    mapping (address => uint) pendingWithdrawals;\r\n\r\n    // 存放address到title的映射\r\n    mapping (address => string) titleOf;\r\n\r\n    // 存放title到address的映射\r\n    mapping (string => address) authorAddress;\r\n\r\n\r\n    // 函数装饰器--合约拥有者权限\r\n    modifier onlyOwner() {\r\n        require(owner == msg.sender);\r\n        _;\r\n    }\r\n\r\n    // 合约构造函数\r\n    constructor() public {\r\n        owner = msg.sender;\r\n    }\r\n\r\n    // 发布句子函数\r\n    function Publish(string memory _title) public payable {\r\n        require(msg.value >= publishPrice);\r\n\r\n        // 存放句子与作者地址的映射\r\n        authorAddress[_title] = msg.sender;\r\n        titleOf[msg.sender] = _title;\r\n\r\n        // 触发发布句子事件\r\n        emit PublishArticle(msg.sender, _title);\r\n    }\r\n\r\n    // 点赞句子函数\r\n    function Read(string memory _title) public payable {\r\n        require(msg.value >= readPrice);\r\n\r\n        // 金句作者获得奖励\r\n        address _author = authorAddress[_title];\r\n        pendingWithdrawals[_author] += readPrice;\r\n\r\n        // 触发句子点赞事件\r\n        emit ReadArticle(msg.sender);\r\n    }\r\n\r\n\r\n    // 查看合约余额\r\n    function contractBalance() public view returns(uint) {\r\n        return address(this).balance;\r\n    }\r\n\r\n\r\n    // 提现奖励\r\n    function withdraw() public payable {\r\n        uint amount = pendingWithdrawals[msg.sender];\r\n        pendingWithdrawals[msg.sender] = 0;\r\n        msg.sender.transfer(amount);\r\n    }\r\n\r\n    // 查看作者累计奖励\r\n    function balanceOf(address user) public view returns(uint) {\r\n        return pendingWithdrawals[user];\r\n    }\r\n\r\n    // 设置发布金句价格\r\n    function setPublishPrice(uint _publishPrice) public onlyOwner {\r\n        publishPrice = _publishPrice;\r\n    }\r\n\r\n    // 设置点赞金句奖励\r\n    function setReadPrice(uint _readPrice) public onlyOwner {\r\n        readPrice = _readPrice;\r\n    }\r\n\r\n}",
  "sourcePath": "E:/study/code/blockchain/FINAL/MyTalk/contracts/MyTalk.sol",
  "compiler": {
    "name": "solc",
    "version": "0.5.0+commit.1d4f565a.Emscripten.clang"
  },
  "schemaVersion": "3.0.1",
  "updatedAt": "2019-01-06T16:40:10.606Z",
  "devdoc": {
    "methods": {}
  },
  "userdoc": {
    "methods": {}
  }
}